{
  "contractName": "MultiTokenFarm",
  "abi": [
    {
      "inputs": [
        {
          "internalType": "address payable",
          "name": "wallet",
          "type": "address"
        },
        {
          "internalType": "address",
          "name": "_rewardToken",
          "type": "address"
        }
      ],
      "stateMutability": "nonpayable",
      "type": "constructor"
    },
    {
      "anonymous": false,
      "inputs": [
        {
          "indexed": true,
          "internalType": "address",
          "name": "user",
          "type": "address"
        },
        {
          "indexed": false,
          "internalType": "uint256",
          "name": "totalAmount",
          "type": "uint256"
        }
      ],
      "name": "FeePayed",
      "type": "event"
    },
    {
      "anonymous": false,
      "inputs": [
        {
          "indexed": true,
          "internalType": "address",
          "name": "user",
          "type": "address"
        },
        {
          "indexed": false,
          "internalType": "uint8",
          "name": "plan",
          "type": "uint8"
        },
        {
          "indexed": false,
          "internalType": "uint256",
          "name": "amount",
          "type": "uint256"
        }
      ],
      "name": "NewDeposit",
      "type": "event"
    },
    {
      "anonymous": false,
      "inputs": [
        {
          "indexed": false,
          "internalType": "address",
          "name": "user",
          "type": "address"
        }
      ],
      "name": "Newbie",
      "type": "event"
    },
    {
      "anonymous": false,
      "inputs": [
        {
          "indexed": true,
          "internalType": "address",
          "name": "previousOwner",
          "type": "address"
        },
        {
          "indexed": true,
          "internalType": "address",
          "name": "newOwner",
          "type": "address"
        }
      ],
      "name": "OwnershipTransferred",
      "type": "event"
    },
    {
      "anonymous": false,
      "inputs": [
        {
          "indexed": true,
          "internalType": "address",
          "name": "referrer",
          "type": "address"
        },
        {
          "indexed": true,
          "internalType": "address",
          "name": "referral",
          "type": "address"
        },
        {
          "indexed": true,
          "internalType": "uint256",
          "name": "level",
          "type": "uint256"
        },
        {
          "indexed": false,
          "internalType": "uint256",
          "name": "amount",
          "type": "uint256"
        }
      ],
      "name": "RefBonus",
      "type": "event"
    },
    {
      "anonymous": false,
      "inputs": [
        {
          "indexed": true,
          "internalType": "address",
          "name": "user",
          "type": "address"
        },
        {
          "indexed": false,
          "internalType": "uint256",
          "name": "amount",
          "type": "uint256"
        }
      ],
      "name": "Withdrawn",
      "type": "event"
    },
    {
      "anonymous": false,
      "inputs": [
        {
          "indexed": false,
          "internalType": "uint256",
          "name": "_amt",
          "type": "uint256"
        },
        {
          "indexed": false,
          "internalType": "address",
          "name": "_user",
          "type": "address"
        }
      ],
      "name": "rewardTransfered",
      "type": "event"
    },
    {
      "inputs": [],
      "name": "INVEST_MIN_AMOUNT",
      "outputs": [
        {
          "internalType": "uint256",
          "name": "",
          "type": "uint256"
        }
      ],
      "stateMutability": "view",
      "type": "function"
    },
    {
      "inputs": [],
      "name": "PERCENTS_DIVIDER",
      "outputs": [
        {
          "internalType": "uint256",
          "name": "",
          "type": "uint256"
        }
      ],
      "stateMutability": "view",
      "type": "function"
    },
    {
      "inputs": [],
      "name": "PERCENT_STEP",
      "outputs": [
        {
          "internalType": "uint256",
          "name": "",
          "type": "uint256"
        }
      ],
      "stateMutability": "view",
      "type": "function"
    },
    {
      "inputs": [],
      "name": "PROJECT_FEE",
      "outputs": [
        {
          "internalType": "uint256",
          "name": "",
          "type": "uint256"
        }
      ],
      "stateMutability": "view",
      "type": "function"
    },
    {
      "inputs": [
        {
          "internalType": "uint256",
          "name": "",
          "type": "uint256"
        }
      ],
      "name": "REFERRAL_PERCENTS",
      "outputs": [
        {
          "internalType": "uint256",
          "name": "",
          "type": "uint256"
        }
      ],
      "stateMutability": "view",
      "type": "function"
    },
    {
      "inputs": [],
      "name": "TIME_STEP",
      "outputs": [
        {
          "internalType": "uint256",
          "name": "",
          "type": "uint256"
        }
      ],
      "stateMutability": "view",
      "type": "function"
    },
    {
      "inputs": [],
      "name": "commissionWallet",
      "outputs": [
        {
          "internalType": "address payable",
          "name": "",
          "type": "address"
        }
      ],
      "stateMutability": "view",
      "type": "function"
    },
    {
      "inputs": [],
      "name": "owner",
      "outputs": [
        {
          "internalType": "address",
          "name": "",
          "type": "address"
        }
      ],
      "stateMutability": "view",
      "type": "function"
    },
    {
      "inputs": [],
      "name": "renounceOwnership",
      "outputs": [],
      "stateMutability": "nonpayable",
      "type": "function"
    },
    {
      "inputs": [],
      "name": "rewardToken",
      "outputs": [
        {
          "internalType": "contract IERC20",
          "name": "",
          "type": "address"
        }
      ],
      "stateMutability": "view",
      "type": "function"
    },
    {
      "inputs": [],
      "name": "started",
      "outputs": [
        {
          "internalType": "bool",
          "name": "",
          "type": "bool"
        }
      ],
      "stateMutability": "view",
      "type": "function"
    },
    {
      "inputs": [],
      "name": "totalInvested",
      "outputs": [
        {
          "internalType": "uint256",
          "name": "",
          "type": "uint256"
        }
      ],
      "stateMutability": "view",
      "type": "function"
    },
    {
      "inputs": [],
      "name": "totalRefBonus",
      "outputs": [
        {
          "internalType": "uint256",
          "name": "",
          "type": "uint256"
        }
      ],
      "stateMutability": "view",
      "type": "function"
    },
    {
      "inputs": [
        {
          "internalType": "address",
          "name": "newOwner",
          "type": "address"
        }
      ],
      "name": "transferOwnership",
      "outputs": [],
      "stateMutability": "nonpayable",
      "type": "function"
    },
    {
      "inputs": [
        {
          "internalType": "address",
          "name": "referrer",
          "type": "address"
        },
        {
          "internalType": "uint8",
          "name": "plan",
          "type": "uint8"
        }
      ],
      "name": "invest",
      "outputs": [],
      "stateMutability": "payable",
      "type": "function"
    },
    {
      "inputs": [],
      "name": "withdraw",
      "outputs": [],
      "stateMutability": "nonpayable",
      "type": "function"
    },
    {
      "inputs": [],
      "name": "getContractBalance",
      "outputs": [
        {
          "internalType": "uint256",
          "name": "",
          "type": "uint256"
        }
      ],
      "stateMutability": "view",
      "type": "function"
    },
    {
      "inputs": [
        {
          "internalType": "uint8",
          "name": "plan",
          "type": "uint8"
        }
      ],
      "name": "getPlanInfo",
      "outputs": [
        {
          "internalType": "uint256",
          "name": "time",
          "type": "uint256"
        },
        {
          "internalType": "uint256",
          "name": "percent",
          "type": "uint256"
        }
      ],
      "stateMutability": "view",
      "type": "function"
    },
    {
      "inputs": [
        {
          "internalType": "address",
          "name": "userAddress",
          "type": "address"
        }
      ],
      "name": "getUserDividends",
      "outputs": [
        {
          "internalType": "uint256",
          "name": "",
          "type": "uint256"
        }
      ],
      "stateMutability": "view",
      "type": "function"
    },
    {
      "inputs": [
        {
          "internalType": "address",
          "name": "userAddress",
          "type": "address"
        }
      ],
      "name": "getUserTotalWithdrawn",
      "outputs": [
        {
          "internalType": "uint256",
          "name": "",
          "type": "uint256"
        }
      ],
      "stateMutability": "view",
      "type": "function"
    },
    {
      "inputs": [
        {
          "internalType": "address",
          "name": "userAddress",
          "type": "address"
        }
      ],
      "name": "getUserCheckpoint",
      "outputs": [
        {
          "internalType": "uint256",
          "name": "",
          "type": "uint256"
        }
      ],
      "stateMutability": "view",
      "type": "function"
    },
    {
      "inputs": [
        {
          "internalType": "address",
          "name": "userAddress",
          "type": "address"
        }
      ],
      "name": "getUserReferrer",
      "outputs": [
        {
          "internalType": "address",
          "name": "",
          "type": "address"
        }
      ],
      "stateMutability": "view",
      "type": "function"
    },
    {
      "inputs": [
        {
          "internalType": "address",
          "name": "userAddress",
          "type": "address"
        }
      ],
      "name": "getUserDownlineCount",
      "outputs": [
        {
          "internalType": "uint256[5]",
          "name": "referrals",
          "type": "uint256[5]"
        }
      ],
      "stateMutability": "view",
      "type": "function"
    },
    {
      "inputs": [
        {
          "internalType": "address",
          "name": "userAddress",
          "type": "address"
        }
      ],
      "name": "getUserTotalReferrals",
      "outputs": [
        {
          "internalType": "uint256",
          "name": "",
          "type": "uint256"
        }
      ],
      "stateMutability": "view",
      "type": "function"
    },
    {
      "inputs": [
        {
          "internalType": "address",
          "name": "userAddress",
          "type": "address"
        }
      ],
      "name": "getUserReferralBonus",
      "outputs": [
        {
          "internalType": "uint256",
          "name": "",
          "type": "uint256"
        }
      ],
      "stateMutability": "view",
      "type": "function"
    },
    {
      "inputs": [
        {
          "internalType": "address",
          "name": "userAddress",
          "type": "address"
        }
      ],
      "name": "getUserReferralTotalBonus",
      "outputs": [
        {
          "internalType": "uint256",
          "name": "",
          "type": "uint256"
        }
      ],
      "stateMutability": "view",
      "type": "function"
    },
    {
      "inputs": [
        {
          "internalType": "address",
          "name": "userAddress",
          "type": "address"
        }
      ],
      "name": "getUserReferralWithdrawn",
      "outputs": [
        {
          "internalType": "uint256",
          "name": "",
          "type": "uint256"
        }
      ],
      "stateMutability": "view",
      "type": "function"
    },
    {
      "inputs": [
        {
          "internalType": "address",
          "name": "userAddress",
          "type": "address"
        }
      ],
      "name": "getUserAvailable",
      "outputs": [
        {
          "internalType": "uint256",
          "name": "",
          "type": "uint256"
        }
      ],
      "stateMutability": "view",
      "type": "function"
    },
    {
      "inputs": [
        {
          "internalType": "address",
          "name": "userAddress",
          "type": "address"
        }
      ],
      "name": "getUserAmountOfDeposits",
      "outputs": [
        {
          "internalType": "uint256",
          "name": "",
          "type": "uint256"
        }
      ],
      "stateMutability": "view",
      "type": "function"
    },
    {
      "inputs": [
        {
          "internalType": "address",
          "name": "userAddress",
          "type": "address"
        }
      ],
      "name": "getUserTotalDeposits",
      "outputs": [
        {
          "internalType": "uint256",
          "name": "amount",
          "type": "uint256"
        }
      ],
      "stateMutability": "view",
      "type": "function"
    },
    {
      "inputs": [
        {
          "internalType": "address",
          "name": "userAddress",
          "type": "address"
        },
        {
          "internalType": "uint256",
          "name": "index",
          "type": "uint256"
        }
      ],
      "name": "getUserDepositInfo",
      "outputs": [
        {
          "internalType": "uint8",
          "name": "plan",
          "type": "uint8"
        },
        {
          "internalType": "uint256",
          "name": "percent",
          "type": "uint256"
        },
        {
          "internalType": "uint256",
          "name": "amount",
          "type": "uint256"
        },
        {
          "internalType": "uint256",
          "name": "start",
          "type": "uint256"
        },
        {
          "internalType": "uint256",
          "name": "finish",
          "type": "uint256"
        }
      ],
      "stateMutability": "view",
      "type": "function"
    },
    {
      "inputs": [],
      "name": "getSiteInfo",
      "outputs": [
        {
          "internalType": "uint256",
          "name": "_totalInvested",
          "type": "uint256"
        },
        {
          "internalType": "uint256",
          "name": "_totalBonus",
          "type": "uint256"
        }
      ],
      "stateMutability": "view",
      "type": "function"
    },
    {
      "inputs": [
        {
          "internalType": "address",
          "name": "userAddress",
          "type": "address"
        }
      ],
      "name": "getUserInfo",
      "outputs": [
        {
          "internalType": "uint256",
          "name": "totalDeposit",
          "type": "uint256"
        },
        {
          "internalType": "uint256",
          "name": "totalWithdrawn",
          "type": "uint256"
        },
        {
          "internalType": "uint256",
          "name": "totalReferrals",
          "type": "uint256"
        }
      ],
      "stateMutability": "view",
      "type": "function"
    },
    {
      "inputs": [
        {
          "internalType": "uint256",
          "name": "_stakeAmt",
          "type": "uint256"
        }
      ],
      "name": "getRewardAmt",
      "outputs": [
        {
          "internalType": "uint256",
          "name": "rewardAmt",
          "type": "uint256"
        }
      ],
      "stateMutability": "view",
      "type": "function"
    },
    {
      "inputs": [
        {
          "internalType": "uint256",
          "name": "_amt",
          "type": "uint256"
        }
      ],
      "name": "withdrawReward",
      "outputs": [],
      "stateMutability": "nonpayable",
      "type": "function"
    },
    {
      "inputs": [
        {
          "internalType": "address",
          "name": "_user",
          "type": "address"
        }
      ],
      "name": "getUserRewardAmt",
      "outputs": [
        {
          "internalType": "uint256",
          "name": "",
          "type": "uint256"
        }
      ],
      "stateMutability": "view",
      "type": "function"
    }
  ],
  "bytecode": "0x61012060405260466080908152601e60a052600f60c052600a60e05260056101008190526200003191600291620001ee565b503480156200003f57600080fd5b506040516200207b3803806200207b83398101604081905262000062916200025a565b600080546001600160a01b031916339081178255604051909182917f8be0079c531659141344cd1fd0a4f28419497f9722a3daafe3b4186f6b6457e0908290a350813b15620000b057600080fd5b60078054610100600160a81b0319166101006001600160a01b03948516021790556040805180820182526127108152601460208083019182526005805460018181018355600083815295517f036b6384b5eca791c62761152d0c79bb0604c104a5fb6f4eb0703f3154bb3db060029384028181019290925595517f036b6384b5eca791c62761152d0c79bb0604c104a5fb6f4eb0703f3154bb3db19182015587518089018952602880825281870190815285548085018755868a52915191850280890192909255519082015587518089018952603c8152602381870190815285548085018755868a5291519185028089019290925551908201558751808901909852605a8852601e948801948552835480830185559390965295519102928301555191015580546001600160a01b03191691909216179055620002b2565b82805482825590600052602060002090810192821562000231579160200282015b8281111562000231578251829060ff169055916020019190600101906200020f565b506200023f92915062000243565b5090565b5b808211156200023f576000815560010162000244565b600080604083850312156200026e57600080fd5b82516200027b8162000299565b60208401519092506200028e8162000299565b809150509250929050565b6001600160a01b0381168114620002af57600080fd5b50565b611db980620002c26000396000f3fe60806040526004361061020f5760003560e01c80636bb1855611610118578063b2b5d363116100a0578063e85abe091161006f578063e85abe0914610696578063f2fde38b146106cf578063f7c618c1146106ef578063fb4cb32b1461070f578063fbfcb2791461074857600080fd5b8063b2b5d363146105d6578063c0806b03146105f6578063d7ffca9114610642578063e262113e1461067b57600080fd5b80637e3abeea116100e75780637e3abeea1461051d5780638da5cb5b1461053d57806397c0262a1461055b578063a8aeb6c214610580578063aecaa634146105b657600080fd5b80636bb185561461049c5780636bbebe57146104bc5780636f9fb98a146104f5578063715018a61461050857600080fd5b806348d44bd11161019b57806357fc86b41161016a57806357fc86b414610403578063581c5ae614610418578063600d20ce1461042b5780636386c1c71461044b57806369b11dd51461048657600080fd5b806348d44bd11461038f5780634ce87053146103a45780635216aeec146103cd578063523a3f08146103e357600080fd5b80631f2698ab116101e25780631f2698ab146102aa57806332bc298c146102d457806336144c9a146102eb5780633ccfd60b1461033f57806348c372031461035657600080fd5b806301c234a81461021457806303a93c0c1461023d578063040a772e1461026a578063153ab9df1461028a575b600080fd5b34801561022057600080fd5b5061022a6103e881565b6040519081526020015b60405180910390f35b34801561024957600080fd5b5061025d610258366004611b2a565b610768565b6040516102349190611c11565b34801561027657600080fd5b5061022a610285366004611b2a565b6107c1565b34801561029657600080fd5b5061022a6102a5366004611b2a565b6109ea565b3480156102b657600080fd5b506007546102c49060ff1681565b6040519015158152602001610234565b3480156102e057600080fd5b5061022a6201518081565b3480156102f757600080fd5b50610327610306366004611b2a565b6001600160a01b039081166000908152600660205260409020600201541690565b6040516001600160a01b039091168152602001610234565b34801561034b57600080fd5b50610354610a20565b005b34801561036257600080fd5b5061022a610371366004611b2a565b6001600160a01b031660009081526006602052604090206009015490565b34801561039b57600080fd5b5061022a606481565b3480156103b057600080fd5b506003546004545b60408051928352602083019190915201610234565b3480156103d957600080fd5b5061022a60035481565b3480156103ef57600080fd5b506103546103fe366004611bc4565b610b6b565b34801561040f57600080fd5b5061022a600581565b610354610426366004611b6f565b610cf2565b34801561043757600080fd5b5061022a610446366004611bc4565b6112eb565b34801561045757600080fd5b5061046b610466366004611b2a565b61130c565b60408051938452602084019290925290820152606001610234565b34801561049257600080fd5b5061022a60045481565b3480156104a857600080fd5b5061022a6104b7366004611b2a565b61134c565b3480156104c857600080fd5b5061022a6104d7366004611b2a565b6001600160a01b03166000908152600660205260409020600b015490565b34801561050157600080fd5b504761022a565b34801561051457600080fd5b50610354611378565b34801561052957600080fd5b5061022a610538366004611b2a565b6113ec565b34801561054957600080fd5b506000546001600160a01b0316610327565b34801561056757600080fd5b506007546103279061010090046001600160a01b031681565b34801561058c57600080fd5b5061022a61059b366004611b2a565b6001600160a01b031660009081526006602052604090205490565b3480156105c257600080fd5b506103b86105d1366004611bf6565b61147a565b3480156105e257600080fd5b5061022a6105f1366004611bc4565b6114d6565b34801561060257600080fd5b50610616610611366004611b45565b6116c0565b6040805160ff90961686526020860194909452928401919091526060830152608082015260a001610234565b34801561064e57600080fd5b5061022a61065d366004611b2a565b6001600160a01b031660009081526006602052604090206001015490565b34801561068757600080fd5b5061022a662386f26fc1000081565b3480156106a257600080fd5b5061022a6106b1366004611b2a565b6001600160a01b031660009081526006602052604090206008015490565b3480156106db57600080fd5b506103546106ea366004611b2a565b6117ca565b3480156106fb57600080fd5b50600154610327906001600160a01b031681565b34801561071b57600080fd5b5061022a61072a366004611b2a565b6001600160a01b03166000908152600660205260409020600a015490565b34801561075457600080fd5b5061022a610763366004611b2a565b6118b4565b610770611ae4565b6001600160a01b03821660009081526006602052604090819020815160a0810190925260030160058282826020028201915b8154815260200190600101908083116107a25750505050509050919050565b6001600160a01b038116600090815260066020526040812081805b82548110156109e257600061087b61084662015180600587600001868154811061080857610808611d6d565b6000918252602090912060039091020154815460ff90911690811061082f5761082f611d6d565b600091825260209091206002909102015490611913565b85600001848154811061085b5761085b611d6d565b90600052602060002090600302016002015461199990919063ffffffff16565b905080846001015410156109cf57600061091f6103e861091960058860000187815481106108ab576108ab611d6d565b6000918252602090912060039091020154815460ff9091169081106108d2576108d2611d6d565b9060005260206000209060020201600101548860000187815481106108f9576108f9611d6d565b90600052602060002090600302016001015461191390919063ffffffff16565b906119f8565b90506000856001015486600001858154811061093d5761093d611d6d565b9060005260206000209060030201600201541161095e578560010154610986565b85600001848154811061097357610973611d6d565b9060005260206000209060030201600201545b905060004284106109975742610999565b835b9050808210156109cb576109c86109c1620151806109196109ba8587611a3a565b8790611913565b8790611999565b95505b5050505b50806109da81611d3c565b9150506107dc565b509392505050565b6000610a1a6109f8836107c1565b6001600160a01b03841660009081526006602052604090206008015490611999565b92915050565b33600081815260066020526040812091610a39906107c1565b336000908152600660205260409020600801549091508015610a695760006008840155610a668282611999565b91505b60008211610ab65760405162461bcd60e51b81526020600482015260156024820152745573657220686173206e6f206469766964656e647360581b60448201526064015b60405180910390fd5b4782811015610ae757610ac98382611a3a565b600885018190556009850154610ade91611999565b60098501559150815b426001850155600a840154610afc9084611999565b600a850155604051339084156108fc029085906000818181858888f19350505050158015610b2e573d6000803e3d6000fd5b5060405183815233907f7084f5476618d8e60b11ef0d7d3f06914655adb8793e28ff7f018d4c76d505d5906020015b60405180910390a250505050565b6000546001600160a01b03163314610b955760405162461bcd60e51b8152600401610aad90611c97565b6001546040516370a0823160e01b815230600482015282916001600160a01b0316906370a082319060240160206040518083038186803b158015610bd857600080fd5b505afa158015610bec573d6000803e3d6000fd5b505050506040513d601f19601f82011682018060405250810190610c109190611bdd565b1015610c6a5760405162461bcd60e51b815260206004820152602360248201527f4e6f7420656e6f7567682072657761726420746f6b656e20746f20776974686460448201526272617760e81b6064820152608401610aad565b60015460405163a9059cbb60e01b8152336004820152602481018390526001600160a01b039091169063a9059cbb90604401602060405180830381600087803b158015610cb657600080fd5b505af1158015610cca573d6000803e3d6000fd5b505050506040513d601f19601f82011682018060405250810190610cee9190611ba2565b5050565b60075460ff16610d605760075461010090046001600160a01b0316331415610d26576007805460ff19166001179055610d60565b60405162461bcd60e51b815260206004820152600f60248201526e139bdd081cdd185c9d1959081e595d608a1b6044820152606401610aad565b662386f26fc10000341015610d7457600080fd5b60048160ff1610610db65760405162461bcd60e51b815260206004820152600c60248201526b24b73b30b634b210383630b760a11b6044820152606401610aad565b6000610dc96103e8610919346064611913565b60075460405191925061010090046001600160a01b0316906108fc8315029083906000818181858888f19350505050158015610e09573d6000803e3d6000fd5b5060405181815233907f2899dc8c12def1caa9accb64257cf2fd9f960f21bb27a560a757eae3c2ec43c19060200160405180910390a26001546001600160a01b031663a9059cbb33610e5a346114d6565b6040516001600160e01b031960e085901b1681526001600160a01b0390921660048301526024820152604401602060405180830381600087803b158015610ea057600080fd5b505af1158015610eb4573d6000803e3d6000fd5b505050506040513d601f19601f82011682018060405250810190610ed89190611ba2565b50610efe610ee5346114d6565b336000908152600660205260409020600b015490611999565b336000908152600660205260409020600b01557f393125c076cfb4428b5be6cba4ace39eb25a97236712e7737ae5a6ff2df29f2a610f3b346114d6565b604080519182523360208301520160405180910390a133600090815260066020526040902060028101546001600160a01b0316611097576001600160a01b03841660009081526006602052604090205415801590610fa257506001600160a01b0384163314155b15610fc5576002810180546001600160a01b0319166001600160a01b0386161790555b60028101546001600160a01b031660005b6005811015611094576001600160a01b0382161561107d576001600160a01b038216600090815260066020526040902061102990600190600301836005811061102157611021611d6d565b015490611999565b6001600160a01b0383166000908152600660205260409020600301826005811061105557611055611d6d565b01556001600160a01b0391821660009081526006602052604090206002015490911690611082565b611094565b8061108c81611d3c565b915050610fd6565b50505b60028101546001600160a01b03161561120a5760028101546001600160a01b031660005b6005811015611207576001600160a01b038216156111f057600061110b6103e8610919600285815481106110f1576110f1611d6d565b90600052602060002001543461191390919063ffffffff16565b6001600160a01b0384166000908152600660205260409020600801549091506111349082611999565b6001600160a01b03841660009081526006602052604090206008810191909155600901546111629082611999565b6001600160a01b038416600081815260066020908152604091829020600901939093555183815284923392917fd41f7e766eebcc7ff42b11ac8691bdf864db4afc0c55e71d629d54edce460d98910160405180910390a46004546111c69082611999565b600455506001600160a01b03918216600090815260066020526040902060020154909116906111f5565b611207565b806111ff81611d3c565b9150506110bb565b50505b805461124a574260018201556040513381527f9fd565cd14c3c391679eb0cad12a14dcf7534e9d3462bcb9b67a098a9bbbc24a9060200160405180910390a15b6040805160608101825260ff85811682523460208084018281524295850195865286546001808201895560008981529390932095516003918202909601805460ff19169690951695909517845551908301559251600290910155546112ae91611999565b6003556040805160ff8516815234602082015233917f3a89eb89956dcf6537585a2372d4e629e18622cce06c2b4fee6301ae0840e2419101610b5d565b600281815481106112fb57600080fd5b600091825260209091200154905081565b600080600061131a846113ec565b6001600160a01b0385166000908152600660205260409020600a015461133f866118b4565b9250925092509193909250565b6001600160a01b03811660009081526006602052604081206008810154600990910154610a1a91611a3a565b6000546001600160a01b031633146113a25760405162461bcd60e51b8152600401610aad90611c97565b600080546040516001600160a01b03909116907f8be0079c531659141344cd1fd0a4f28419497f9722a3daafe3b4186f6b6457e0908390a3600080546001600160a01b0319169055565b6000805b6001600160a01b038316600090815260066020526040902054811015611474576001600160a01b0383166000908152600660205260409020805461146091908390811061143f5761143f611d6d565b9060005260206000209060030201600101548361199990919063ffffffff16565b91508061146c81611d3c565b9150506113f0565b50919050565b60008060058360ff168154811061149357611493611d6d565b906000526020600020906002020160000154915060058360ff16815481106114bd576114bd611d6d565b9060005260206000209060020201600101549050915091565b600067016345785d8a000082116114f55750662386f26fc10000919050565b67016345785d8a00008211801561151457506706f05b59d3b200008211155b15611527575066b1a2bc2ec50000919050565b6706f05b59d3b20000821180156115465750670de0b6b3a76400008211155b1561155a57506702c68af0bb140000919050565b670de0b6b3a7640000821180156115795750674563918244f400008211155b1561158d5750671bc16d674ec80000919050565b674563918244f40000821180156115ac5750678ac7230489e800008211155b156115c05750674563918244f40000919050565b678ac7230489e80000821180156115df575067d02ab486cedc00008211155b156115f35750678ac7230489e80000919050565b67d02ab486cedc000082118015611613575068022b1c8c1227a000008211155b15611628575068015af1d78b58c40000919050565b6001546040516370a0823160e01b81523060048201526001600160a01b03909116906370a082319060240160206040518083038186803b15801561166b57600080fd5b505afa15801561167f573d6000803e3d6000fd5b505050506040513d601f19601f820116820180604052508101906116a39190611bdd565b6116af57506000919050565b506802b5e3af16b18800005b919050565b6001600160a01b0382166000908152600660205260408120805482918291829182918190889081106116f4576116f4611d6d565b60009182526020909120600390910201546005805460ff9092169750908790811061172157611721611d6d565b906000526020600020906002020160010154945080600001878154811061174a5761174a611d6d565b906000526020600020906003020160010154935080600001878154811061177357611773611d6d565b90600052602060002090600302016002015492506117bd6117a8620151806005846000018b8154811061080857610808611d6d565b82600001898154811061085b5761085b611d6d565b9150509295509295909350565b6000546001600160a01b031633146117f45760405162461bcd60e51b8152600401610aad90611c97565b6001600160a01b0381166118595760405162461bcd60e51b815260206004820152602660248201527f4f776e61626c653a206e6577206f776e657220697320746865207a65726f206160448201526564647265737360d01b6064820152608401610aad565b600080546040516001600160a01b03808516939216917f8be0079c531659141344cd1fd0a4f28419497f9722a3daafe3b4186f6b6457e091a3600080546001600160a01b0319166001600160a01b0392909216919091179055565b6001600160a01b0381166000908152600660208190526040822060078101549181015460058201546004830154600390930154919290916118f59190611ccc565b6118ff9190611ccc565b6119099190611ccc565b610a1a9190611ccc565b60008261192257506000610a1a565b600061192e8385611d06565b90508261193b8583611ce4565b146119925760405162461bcd60e51b815260206004820152602160248201527f536166654d6174683a206d756c7469706c69636174696f6e206f766572666c6f6044820152607760f81b6064820152608401610aad565b9392505050565b6000806119a68385611ccc565b9050838110156119925760405162461bcd60e51b815260206004820152601b60248201527f536166654d6174683a206164646974696f6e206f766572666c6f7700000000006044820152606401610aad565b600061199283836040518060400160405280601a81526020017f536166654d6174683a206469766973696f6e206279207a65726f000000000000815250611a7c565b600061199283836040518060400160405280601e81526020017f536166654d6174683a207375627472616374696f6e206f766572666c6f770000815250611ab3565b60008183611a9d5760405162461bcd60e51b8152600401610aad9190611c42565b506000611aaa8486611ce4565b95945050505050565b60008184841115611ad75760405162461bcd60e51b8152600401610aad9190611c42565b506000611aaa8486611d25565b6040518060a001604052806005906020820280368337509192915050565b80356001600160a01b03811681146116bb57600080fd5b803560ff811681146116bb57600080fd5b600060208284031215611b3c57600080fd5b61199282611b02565b60008060408385031215611b5857600080fd5b611b6183611b02565b946020939093013593505050565b60008060408385031215611b8257600080fd5b611b8b83611b02565b9150611b9960208401611b19565b90509250929050565b600060208284031215611bb457600080fd5b8151801515811461199257600080fd5b600060208284031215611bd657600080fd5b5035919050565b600060208284031215611bef57600080fd5b5051919050565b600060208284031215611c0857600080fd5b61199282611b19565b60a08101818360005b6005811015611c39578151835260209283019290910190600101611c1a565b50505092915050565b600060208083528351808285015260005b81811015611c6f57858101830151858201604001528201611c53565b81811115611c81576000604083870101525b50601f01601f1916929092016040019392505050565b6020808252818101527f4f776e61626c653a2063616c6c6572206973206e6f7420746865206f776e6572604082015260600190565b60008219821115611cdf57611cdf611d57565b500190565b600082611d0157634e487b7160e01b600052601260045260246000fd5b500490565b6000816000190483118215151615611d2057611d20611d57565b500290565b600082821015611d3757611d37611d57565b500390565b6000600019821415611d5057611d50611d57565b5060010190565b634e487b7160e01b600052601160045260246000fd5b634e487b7160e01b600052603260045260246000fdfea2646970667358221220d773fd9dc736a4df8fc0fc1e1399173822b3795e73cd347b64bd60798195f8ae64736f6c63430008070033",
  "immutableReferences": {},
  "source": "// SPDX-License-Identifier: MIT\npragma solidity ^0.8.0;\n\nimport \"./Utils.sol\";\n\ncontract MultiTokenFarm is Ownable {\n\tusing SafeMath for uint256;\n\n\t// TODO BEP reward token\n\tIERC20 public rewardToken;\n\n\t// uint256 constant public INVEST_MIN_AMOUNT = 5e16; // 0.05 bnb\n\tuint256 constant public INVEST_MIN_AMOUNT = 1e16; // 0.01 bnb\n\tuint256[] public REFERRAL_PERCENTS = [70, 30, 15, 10, 5];\n\tuint256 constant public PROJECT_FEE = 100; // 10%\n\tuint256 constant public PERCENT_STEP = 5;\n\tuint256 constant public PERCENTS_DIVIDER = 1000;\n\tuint256 constant public TIME_STEP = 1 days;\n\n\tuint256 public totalInvested;\n\tuint256 public totalRefBonus;\n\n    struct Plan {\n        uint256 time;\n        uint256 percent;\n    }\n\n    Plan[] internal plans;\n\n\tstruct Deposit {\n        uint8 plan;\n\t\tuint256 amount;\n\t\tuint256 start;\n\t}\n\n\tstruct User {\n\t\tDeposit[] deposits;\n\t\tuint256 checkpoint;\n\t\taddress referrer;\n\t\tuint256[5] levels;\n\t\tuint256 bonus;\n\t\tuint256 totalBonus;\n\t\tuint256 withdrawn;\n\t\t// TODO BEP reward token\n\t\tuint256 earnedRewardToken;\n\t}\n\n\tmapping (address => User) internal users;\n\n\tbool public started;\n\taddress payable public commissionWallet;\n\n\tevent Newbie(address user);\n\tevent NewDeposit(address indexed user, uint8 plan, uint256 amount);\n\tevent Withdrawn(address indexed user, uint256 amount);\n\tevent RefBonus(address indexed referrer, address indexed referral, uint256 indexed level, uint256 amount);\n\tevent FeePayed(address indexed user, uint256 totalAmount);\n\t// TODO BEP reward token\n\tevent rewardTransfered(uint256 _amt, address _user);\n\n\tconstructor(address payable wallet, address _rewardToken) {\n\t\trequire(!isContract(wallet));\n\t\tcommissionWallet = wallet;\n\n        plans.push(Plan(10000, 20));\n        plans.push(Plan(40, 40));\n        plans.push(Plan(60, 35));\n        plans.push(Plan(90, 30));\n\n\t\t// TODO BEP reward token\n\t\trewardToken = IERC20(_rewardToken);\n\t}\n\n\tfunction invest(address referrer, uint8 plan) public payable {\n\t\tif (!started) {\n\t\t\tif (msg.sender == commissionWallet) {\n\t\t\t\tstarted = true;\n\t\t\t} else revert(\"Not started yet\");\n\t\t}\n\n\t\trequire(msg.value >= INVEST_MIN_AMOUNT);\n        require(plan < 4, \"Invalid plan\");\n\n\t\tuint256 fee = msg.value.mul(PROJECT_FEE).div(PERCENTS_DIVIDER);\n\t\tcommissionWallet.transfer(fee);\n\t\temit FeePayed(msg.sender, fee);\n\n\t\t// TODO BEP reward token\n\t\trewardToken.transfer(msg.sender, getRewardAmt(msg.value));\n\t\tusers[msg.sender].earnedRewardToken = users[msg.sender].earnedRewardToken.add(getRewardAmt(msg.value));\n\t\temit rewardTransfered(getRewardAmt(msg.value), msg.sender);\n\n\t\tUser storage user = users[msg.sender];\n\n\t\tif (user.referrer == address(0)) {\n\t\t\tif (users[referrer].deposits.length > 0 && referrer != msg.sender) {\n\t\t\t\tuser.referrer = referrer;\n\t\t\t}\n\n\t\t\taddress upline = user.referrer;\n\t\t\tfor (uint256 i = 0; i < 5; i++) {\n\t\t\t\tif (upline != address(0)) {\n\t\t\t\t\tusers[upline].levels[i] = users[upline].levels[i].add(1);\n\t\t\t\t\tupline = users[upline].referrer;\n\t\t\t\t} else break;\n\t\t\t}\n\t\t}\n\n\t\tif (user.referrer != address(0)) {\n\t\t\taddress upline = user.referrer;\n\t\t\tfor (uint256 i = 0; i < 5; i++) {\n\t\t\t\tif (upline != address(0)) {\n\t\t\t\t\tuint256 amount = msg.value.mul(REFERRAL_PERCENTS[i]).div(PERCENTS_DIVIDER);\n\t\t\t\t\tusers[upline].bonus = users[upline].bonus.add(amount);\n\t\t\t\t\tusers[upline].totalBonus = users[upline].totalBonus.add(amount);\n\t\t\t\t\temit RefBonus(upline, msg.sender, i, amount);\n\n\t\t\t\t\t//TODO accumulate RefBonus to totalRefBonus\n\t\t\t\t\ttotalRefBonus = totalRefBonus.add(amount);\n\n\t\t\t\t\tupline = users[upline].referrer;\n\t\t\t\t} else break;\n\t\t\t}\n\t\t}\n\n\t\tif (user.deposits.length == 0) {\n\t\t\tuser.checkpoint = block.timestamp;\n\t\t\temit Newbie(msg.sender);\n\t\t}\n\n\t\tuser.deposits.push(Deposit(plan, msg.value, block.timestamp));\n\n\t\ttotalInvested = totalInvested.add(msg.value);\n\n\t\temit NewDeposit(msg.sender, plan, msg.value);\n\t}\n\n\tfunction withdraw() public {\n\t\tUser storage user = users[msg.sender];\n\n\t\tuint256 totalAmount = getUserDividends(msg.sender);\n\n\t\tuint256 referralBonus = getUserReferralBonus(msg.sender);\n\t\tif (referralBonus > 0) {\n\t\t\tuser.bonus = 0;\n\t\t\ttotalAmount = totalAmount.add(referralBonus);\n\t\t}\n\n\t\trequire(totalAmount > 0, \"User has no dividends\");\n\n\t\tuint256 contractBalance = address(this).balance;\n\t\tif (contractBalance < totalAmount) {\n\t\t\tuser.bonus = totalAmount.sub(contractBalance);\n\t\t\tuser.totalBonus = user.totalBonus.add(user.bonus);\n\t\t\ttotalAmount = contractBalance;\n\t\t}\n\n\t\tuser.checkpoint = block.timestamp;\n\t\tuser.withdrawn = user.withdrawn.add(totalAmount);\n\n\t\tpayable(msg.sender).transfer(totalAmount);\n\n\t\temit Withdrawn(msg.sender, totalAmount);\n\t}\n\n\tfunction getContractBalance() public view returns (uint256) {\n\t\treturn address(this).balance;\n\t}\n\n\tfunction getPlanInfo(uint8 plan) public view returns(uint256 time, uint256 percent) {\n\t\ttime = plans[plan].time;\n\t\tpercent = plans[plan].percent;\n\t}\n\n\tfunction getUserDividends(address userAddress) public view returns (uint256) {\n\t\tUser storage user = users[userAddress];\n\n\t\tuint256 totalAmount;\n\n\t\tfor (uint256 i = 0; i < user.deposits.length; i++) {\n\t\t\tuint256 finish = user.deposits[i].start.add(plans[user.deposits[i].plan].time.mul(1 days));\n\t\t\tif (user.checkpoint < finish) {\n\t\t\t\tuint256 share = user.deposits[i].amount.mul(plans[user.deposits[i].plan].percent).div(PERCENTS_DIVIDER);\n\t\t\t\tuint256 from = user.deposits[i].start > user.checkpoint ? user.deposits[i].start : user.checkpoint;\n\t\t\t\tuint256 to = finish < block.timestamp ? finish : block.timestamp;\n\t\t\t\tif (from < to) {\n\t\t\t\t\ttotalAmount = totalAmount.add(share.mul(to.sub(from)).div(TIME_STEP));\n\t\t\t\t}\n\t\t\t}\n\t\t}\n\n\t\treturn totalAmount;\n\t}\n\n\tfunction getUserTotalWithdrawn(address userAddress) public view returns (uint256) {\n\t\treturn users[userAddress].withdrawn;\n\t}\n\n\tfunction getUserCheckpoint(address userAddress) public view returns(uint256) {\n\t\treturn users[userAddress].checkpoint;\n\t}\n\n\tfunction getUserReferrer(address userAddress) public view returns(address) {\n\t\treturn users[userAddress].referrer;\n\t}\n\n\tfunction getUserDownlineCount(address userAddress) public view returns(uint256[5] memory referrals) {\n\t\treturn (users[userAddress].levels);\n\t}\n\n\tfunction getUserTotalReferrals(address userAddress) public view returns(uint256) {\n\t\treturn users[userAddress].levels[0]+users[userAddress].levels[1]+users[userAddress].levels[2]+users[userAddress].levels[3]+users[userAddress].levels[4];\n\t}\n\n\tfunction getUserReferralBonus(address userAddress) public view returns(uint256) {\n\t\treturn users[userAddress].bonus;\n\t}\n\n\tfunction getUserReferralTotalBonus(address userAddress) public view returns(uint256) {\n\t\treturn users[userAddress].totalBonus;\n\t}\n\n\tfunction getUserReferralWithdrawn(address userAddress) public view returns(uint256) {\n\t\treturn users[userAddress].totalBonus.sub(users[userAddress].bonus);\n\t}\n\n\tfunction getUserAvailable(address userAddress) public view returns(uint256) {\n\t\treturn getUserReferralBonus(userAddress).add(getUserDividends(userAddress));\n\t}\n\n\tfunction getUserAmountOfDeposits(address userAddress) public view returns(uint256) {\n\t\treturn users[userAddress].deposits.length;\n\t}\n\n\tfunction getUserTotalDeposits(address userAddress) public view returns(uint256 amount) {\n\t\tfor (uint256 i = 0; i < users[userAddress].deposits.length; i++) {\n\t\t\tamount = amount.add(users[userAddress].deposits[i].amount);\n\t\t}\n\t}\n\n\tfunction getUserDepositInfo(address userAddress, uint256 index) public view returns(uint8 plan, uint256 percent, uint256 amount, uint256 start, uint256 finish) {\n\t    User storage user = users[userAddress];\n\n\t\tplan = user.deposits[index].plan;\n\t\tpercent = plans[plan].percent;\n\t\tamount = user.deposits[index].amount;\n\t\tstart = user.deposits[index].start;\n\t\tfinish = user.deposits[index].start.add(plans[user.deposits[index].plan].time.mul(1 days));\n\t}\n\n\tfunction getSiteInfo() public view returns(uint256 _totalInvested, uint256 _totalBonus) {\n\t\treturn(totalInvested, totalRefBonus);\n\t}\n\n\tfunction getUserInfo(address userAddress) public view returns(uint256 totalDeposit, uint256 totalWithdrawn, uint256 totalReferrals) {\n\t\treturn(getUserTotalDeposits(userAddress), getUserTotalWithdrawn(userAddress), getUserTotalReferrals(userAddress));\n\t}\n\n\tfunction isContract(address addr) internal view returns (bool) {\n        uint size;\n        assembly { size := extcodesize(addr) }\n        return size > 0;\n    }\n\n\t// TODO BEP reward token\n\tfunction getRewardAmt(uint256 _stakeAmt) public view returns(uint256 rewardAmt) {\n\t\tif (_stakeAmt <= 0.1 ether) { \t\t\t\t\t\t\t\t //0.01BNB > X < 0.1BNB   --> 0.01 MULT\n\t\t\trewardAmt = 0.01 ether;\n\t\t} else if (_stakeAmt > 0.1 ether && _stakeAmt <= 0.5 ether){ //0.1BNB > X < 0.5BNB   --> 0.05 MULT\n\t\t\trewardAmt = 0.05 ether;\n\t\t} else if (_stakeAmt > 0.5 ether && _stakeAmt <= 1 ether) {  //0.5BNB > X < 1BNB   --> 0.2 MULT\n\t\t\trewardAmt = 0.2 ether;\n\t\t} else if (_stakeAmt > 1 ether && _stakeAmt <= 5 ether) { \t //1BNB > X < 5BNB   --> 2 MULT\n\t\t\trewardAmt = 2 ether;\n\t\t} else if (_stakeAmt > 5 ether && _stakeAmt <= 10 ether) {   //5BNB > X < 10BNB   --> 5 MULT\n\t\t\trewardAmt = 5 ether;\n\t\t} else if (_stakeAmt > 10 ether && _stakeAmt <= 15 ether) {  //10BNB > X < 15BNB   --> 10 MULT\n\t\t\trewardAmt = 10 ether;\n\t\t} else if (_stakeAmt > 15 ether && _stakeAmt <= 40 ether) {  //15BNB > X < 40BNB   --> 25 MULT\n\t\t\trewardAmt = 25 ether;\n\t\t} else if (rewardToken.balanceOf(address(this)) == 0) {\n\t\t\trewardAmt = 0;\n\t\t} else {  \t\t\t\t\t\t\t\t\t\t\t\t\t //40BNB >   --> 50 MULT\"        \n\t\t\trewardAmt = 50 ether;\n\t\t}\n\t}\n\tfunction withdrawReward(uint256 _amt) onlyOwner public {\n\t\trequire(rewardToken.balanceOf(address(this)) >= _amt, \"Not enough reward token to withdraw\");\n\t\trewardToken.transfer(msg.sender, _amt);\n\t}\n\tfunction getUserRewardAmt(address _user) public view returns(uint256) {\n\t\treturn users[_user].earnedRewardToken;\n\t}\n}\n\n",
  "sourcePath": "/Users/macbookpro4eric/Projects/blockchain/project44_multi_farm/contracts/MultiTokenFarm.sol",
  "compiler": {
    "name": "solc",
    "version": "0.8.7+commit.e28d00a7.Emscripten.clang"
  },
  "schemaVersion": "3.3.4",
  "updatedAt": "2021-11-08T07:06:49.288Z",
  "devdoc": {
    "kind": "dev",
    "methods": {
      "owner()": {
        "details": "Returns the address of the current owner."
      },
      "renounceOwnership()": {
        "details": "Leaves the contract without owner. It will not be possible to call `onlyOwner` functions anymore. Can only be called by the current owner. NOTE: Renouncing ownership will leave the contract without an owner, thereby removing any functionality that is only available to the owner."
      },
      "transferOwnership(address)": {
        "details": "Transfers ownership of the contract to a new account (`newOwner`). Can only be called by the current owner."
      }
    },
    "version": 1
  },
  "userdoc": {
    "kind": "user",
    "methods": {},
    "version": 1
  }
}